:020000040800F2
:100000000050002075040008B4040008B40400087F
:10001000B4040008B4040008B4040008F0B516469F
:1000200003780C4FB41AA14201DC0370F0BD16F83E
:10003000015B85EA030424093C5D84EA0313DCB216
:1000400085EA141505F00F057B5D83EA0413DBB226
:10005000E8E700BFE00E00080B4B70B51D686C6947
:1000600044F040046C6101255C68A56000248C426A
:1000700003D15B681B68136070BD50F824605D6835
:1000800001342E60F3E700BF040000202DE9F347A0
:10009000624E05468946904600243746DFF89CA10B
:1000A0004C4533786CDB052B6CD0002002B0BDE8EA
:1000B000F0873BB92B5D022B0FD1594A13700123F6
:1000C00033700AE0012B18D12B5D554A052B537074
:1000D00001D0802B03D105233B700134E0E7012BD5
:1000E00007D80223337000234E4A13604E4A136030
:1000F000F3E7022BF1D00023EEE7022B22D14A4A8C
:100100004749136815F804C0C81880F802C0285D74
:1001100003F1010CDFF80CE1C3F10303DB0000FA8B
:1001200003F3DEF80000BCF1030F40EA0300C2F85D
:1001300000C0CEF80000D0D94B78002BCBD10321E2
:100140003170D4E7032B0BD1374B19684A1C1A6066
:10015000334B285D0B44072A9871BEDD0423AFE7BB
:10016000042BC8D1FF2302A800F8013D52460D21FF
:10017000FFF754FF2A5D9DF807309A42BBD1AAE7EA
:10018000052B96D1264C6378052B06D10820274BEA
:10019000C8F8003000233B7088E7802B05D1244B42
:1001A000244A9B68DA600020F4E7B3B91D4D00F0E3
:1001B00083F92868C0F3090252B1082229681E4851
:1001C00000F0B0F90028EED1C8F800400620E1E7C1
:1001D00000F080F90028F0D0E5E7012BE3D1114BC6
:1001E0001D680023D94303F00402585D01F00301A8
:1001F000224401330A44082B9071F3D1FF2302A853
:1002000000F8013D0D4A0D21FFF708FF9DF807306A
:100210000F20A373C8F80040BCE700BF28000020EF
:10022000300000202C00002040000020F00E0008CC
:10023000040000200400FA053600002031000020F0
:10024000082213B5194C23689A614FF000531A68BD
:10025000174B9A4203D0E3689B685A0705D54FF0C5
:10026000005300221A6002B010BD2069416AB1F546
:10027000704FF8D28B07F6D101AA8908FFF7ECFE80
:10028000019A2169D2434B6A019203F1006303F59D
:1002900080531B689A42E6D10B6883F30888054BAC
:1002A000A26893605B689847DDE700BF0400002008
:1002B000EFBEADDE0010000812210C4B5A69116030
:1002C0004FF4D0011A6851601A68094911601A6820
:1002D00012689201FBD51A68064951601A68526883
:1002E00002F00C02082AF9D1704700BF0400002078
:1002F00083000001020068004388180A022811D018
:10030000032803D0012810D1094B06E0DBB2022BF1
:100310000BD8074800EB83031B6E18780B60108026
:1003200001207047034B4B20F8E70020704700BFC7
:10033000FC0E00080E0F00080B78024603F0630362
:10034000212B17D18888A8B94B78212B0CD0222BD0
:1003500008D0202B07D1084B08310A5CC254013069
:100360000728FAD101207047034B93650723A2F8B1
:100370005C30F7E70020704720000020036813B5C9
:100380009B690A490446402201209847011E0ADD64
:1003900001AA0648FFF77AFE28B1236882B2DB691A
:1003A00001998120984702B010BD00BF28010020AC
:1003B00038B505460C4619B1012910D000200DE0D2
:1003C000036882205B6998472B6881205B699847A6
:1003D0002B6801205B699847AC63012038BD036836
:1003E00040221B690221204698472B6840221B6946
:1003F0000221812098472B6808221B690321822053
:1004000098470022034B1146AB632B688120DB69C0
:100410009847E2E77D03000808B5FFF711FFFFF7F3
:100420004BFF08220D4C0E4B84F860200D4A2360D0
:10043000C4E915227822A4F85E200B4A5B68E260CA
:100440000A4A012062600A4A226198472368012013
:100450009B689847204600F041FAFBE744000020E3
:10046000880F0008A8000020B10300083903000825
:10047000F9020008002103E0094B5B5843500431A6
:100480000848094B42189A42F6D3084A02E0002372
:1004900042F8043B064B9A42F9D3FFF7BDFF704781
:1004A000BC0F0008040000202800002028000020C5
:1004B00068010020FEE70000034B04491A68516000
:1004C0001B68034A5A6070471800002023016745E3
:1004D000AB89EFCD124A10B51368DB6813F0010346
:1004E00001D0012010BD022411680C61116848611F
:1004F00042201168086142F210711068C068C40798
:1005000003D58B42EDD00133F7E78B42E9D0136876
:10051000DB6813F0140F14BF01200020E2E700BFD6
:1005200018000020F0B5194D2B68DB6813F00103AB
:1005300001D00120F0BD01262C68266142F2107620
:10054000934201DB0020F5E79C074BBF4478C47859
:10055000077887784CBF44EA072444EA0724CC5242
:100560004FF0000448BF04302F68FF68FF0703D531
:10057000B442DED00134F7E7B442DAD02C68E46844
:1005800014F0140FD5D10233DAE700BF18000020B1
:1005900038B50D4603680446DB68887898476B8851
:1005A000002B14BF0323022384F8623038BD836814
:1005B00010B504461BB1416D98470023A36010BDE0
:1005C00038B50D460446036801211B6A05F07F001B
:1005D0009847236801211B6A45F080009847002353
:1005E00084F8633038BD000070B5044616460D46E9
:1005F00051B10B1F022B1AD802F0070300EB830343
:100600005B6BA3B1984712E0022380F8623084F854
:10061000631084F86110036890F860201B69084635
:100620009847084B284663632368DB68984704EBC8
:1006300085035B692BB1324629462046BDE87040F0
:10064000184770BDB906000838B5044694F8633001
:100650000846023B032B24D8DFE803F002022426DD
:1006600094F86050B4F85C30A16D9D4228BF1D46DF
:1006700023682A46DB699847A36D2B44A365B4F829
:100680005C305B1B9BB2A4F85C3053B994F86330C8
:10069000022B03D094F86030AB4202D0042384F8DC
:1006A000633038BD0623FAE70023204684F8633020
:1006B000BDE83840FFF77BBF0529F8B5044616466C
:1006C00009D0062903D0042943D11146AEE0002306
:1006D00080F86330836094F86330656D012B24D01B
:1006E00007D3062B36D031462046BDE8F840FFF749
:1006F00067BF2368B4F85E209B6929463046984757
:100700000828F0D105F10803A365EB88A4F85C3054
:1007100095F90020002A2BDB53B3B4F85E209A42EF
:10072000E1D3012384F8633013E02368B4F85C203C
:100730009B69A16D30469847B4F85C3082B29A420A
:10074000D1D815D010469B1AA4F85C30A36D18447C
:10075000A065F8BD0022236830469B691146984782
:100760000023204684F86330BDE8F840FFF71FBF40
:10077000B4F85E3005F10807A4F85C306368A7653B
:10078000B3B92B7803F06303012B00F08E801CD3E8
:10079000022BA8D16B78012B00F08B80C0F08D80EC
:1007A000032BA0D1012123681B6A287998472AE0EE
:1007B00004F108022946204698470028E1D0012884
:1007C00021D002288FD10523ACE76B78092B8AD87A
:1007D00001A252F823F000BF63080008E7060008F2
:1007E000E7060008E7060008E706000869080008B1
:1007F00035080008E706000801080008830800081B
:1008000094F861302B7295F9003046F08000002B8F
:100810005BDAEB88B4F85C2001469A422ABFA4F860
:100820005C3003230223204684F86330BDE8F8409F
:10083000FFF70ABF40F2FE336A889A4206D1236866
:1008400038461B6B9847A4F85C00DCE72369002B53
:100850003FF449AF04F15C0204F15801284698477F
:10086000ADE700232B81CEE723681B689847C307B9
:1008700004D529462046FFF78BFEC4E7164BA3603C
:10088000C1E7E368AF78002B3FF42DAF394620462F
:10089000984701287FF427AF002F0CBF03230423C0
:1008A00084F8617084F86230ADE76B78002BD9D0A2
:1008B00019E7236800211B6A77E7236828795B6AB8
:1008C0009847002328726B729DE700222368114627
:1008D000DB69984777E700BF910500080368014985
:1008E0009B6A1847E90500084FF4007310B50B4ADE
:1008F0000B4C118811B18B4228BF0B46118911B1E5
:100900008B4228BF0B461032A242F2D100F12002E6
:100910009A429ABF181A80B2002010BD00600040B1
:1009200080600040034BDB6913F4000F14BF2820E4
:10093000002070470010024000F007039B0003F105
:10094000804303F5B8431A8802F4C062B2F5806FA1
:100950000ED000061A881CD502F0300242B11A8867
:1009600039B182F0100222F4E04222F040021A80F3
:10097000704702F4E062B2F5807F1A880BBF82F004
:10098000300282F0200222F4405222F4E04292B27D
:10099000EDE702F44052002AEAD01A8831B182F41D
:1009A000805222F4804222F07002E0E702F4E0621A
:1009B000B2F5807F1A880BBF82F4415282F4405214
:1009C00022F0300222F07002E1E7002070470000C0
:1009D000024B40F08000A3F84C007047005C0040E0
:1009E0002DE9F0414FF6FE7500F007039C001E0153
:1009F00004F1804406F1804601320F4604F5B84404
:100A000006F5C04615409BB2062919D8DFE801F06B
:100A1000041206181818150043F400734FFA80F8F2
:100A2000B8F1000F23800EDB6FB13E2D33D84FEAB3
:100A3000452839E043F48063F0E743F48073EDE741
:100A400043F4C063EAE72846FFF74EFF10B90020E1
:100A5000BDE8F0810023012F3080B38001D0062F44
:100A600013D12846FFF740FF0028F0D00023308143
:100A7000B381238883F0300323F440539BB2B8F151
:100A8000000F2380D1DA0120E2E7238883F02003DE
:100A900023F4E043F2E705F11F034FF6E0751D4034
:100AA0004FEA451808F5F84828461FFA88F8FFF776
:100AB0001BFF0028CBD0012F3081A6F80C8001D07D
:100AC000062F0FD12846FFF70FFF0028BFD0308038
:100AD000A6F80480238883F4415323F030039BB2AB
:100AE0002380D0E7238883F4405323F07003F6E794
:100AF00000F007000301800000F1804000F5B840DD
:100B0000028803F1804322F4786222F00F0252043B
:100B1000520C0280002203F5C0431A819A811A8088
:100B20009A80704730B594880546C4F3090004F4F0
:100B30007C4413889480002214465B0003F18043B8
:100B400003F5C043904200DC30BD12F0010F08BF36
:100B500033F8044B914203DDAC54240A0132F1E72F
:100B60000846F1E700F0070038B50D4611460201CE
:100B7000800000F1804404F5B844238802F18042EB
:100B800003F45C53B3F5185F02F5C04206D012D8E7
:100B9000B3F5005F02D0B3F5085F12D108322846E2
:100BA000FFF7C0FF238883F4405323F4804323F0EE
:100BB000700323801FE0B3F5445F05D0B3F5505FA9
:100BC0001AD04FF0FF3016E044F240002388034073
:100BD00001D0834207D1238823F4E04323F070033C
:100BE00043F040032380238813F0400F18BF0832DE
:100BF0002846FFF797FF38BD238813F4804FF5E7A9
:100C0000002370B514889180640004F1804404F5D9
:100C1000C0440022994200DC70BDC55CDE0006F0D5
:100C20000806B5402A4303F0010592B201330DB91D
:100C30009942EFD124F8042BEBE700F0070070B5E0
:100C400015460201800000F1804404F5B844238871
:100C500002F1804203F4E663B3F5087F0E4602F525
:100C6000C0420ED007D8202B0BD0B3F5907F14D004
:100C70004FF0FF302BE0B3F5866F1FD0B3F5C46F94
:100C8000F6D129463046FFF7BBFF238883F03003B7
:100C900023F4E04323F040030EE023883046590458
:100CA00048BF08322946FFF7ABFF238823F4E0430F
:100CB00023F0700343F48043238007E02388294610
:100CC0005B0658BF08323046FFF79AFF284670BDD2
:100CD000024BB3F84800C0F30A007047005C0040C4
:100CE00070B50C463C490546B1F8440080B2C3B229
:100CF000020403F00F0625D503F007039B0003F160
:100D0000804303F5B8431A8812F0800F1A880DD07B
:100D1000042122F4E14222F070021A8046F080069B
:100D2000324628462346BDE87040184722F070023C
:100D30001205120D1A801B8813F4006F14BF0621D0
:100D40000521EDE7420513D5B1F8443023F4806363
:100D50001B041B0CA1F844300023A1F850301946A5
:100D6000C8B2FFF7C5FE01310829F9D10021D7E744
:100D7000C30411D5B1F8403023F008031B041B0C49
:100D8000A1F84030B1F8443023F480531B041B0C0D
:100D9000A1F844300321C3E702050FD5B1F8403074
:100DA00043F00803A1F84030B1F8443023F4006365
:100DB0001B041B0CA1F844300221B1E7830409D5C0
:100DC000B1F8443023F400531B041B0CA1F8443049
:100DD0000721A5E770BD00BF005C004000F00703DD
:100DE0009B0003F1804303F5B84310F0800F18888F
:100DF00006D000F03000102814BF002001207047FA
:100E000000F44050B0F5805FF6E700000F4BDA6960
:100E100088B142F40002DA611A6942F400021A61F0
:100E20001A6922F400021A614FF43C42A3F5DA3346
:100E3000A3F840207047120207D51A6942F4000255
:100E40001A61DA6922F40002DA6170470010024088
:100E500004221F4B30B5196803F1C24303F5E513B3
:100E60001C4D03F2DD53CCB26340013A05FB03F3A2
:100E70004FEA1121F7D1184A164D11680422CCB25D
:100E80006340013A05FB03F34FEA1121F7D1134AFE
:100E9000104D11680422CCB26340013A05FB03F304
:100EA0004FEA1121F7D105461C2223FA02F101F085
:100EB0000F010A2934BF30243724043A214425F88D
:100EC000021F111DF1D140F212330380122030BDF8
:100ED000E8F7FF1F93010001ECF7FF1FF0F7FF1F7A
:100EE00000070E091C1B1215383F363124232A2D0A
:100EF000426F6F74302E300D0000000012010002AE
:100F0000EF0201088304405700010102FE010902BB
:100F10004B00020100C032080B000202020000096F
:100F20000400000102020000052400100105240154
:100F300000010424020005240600010705820308BD
:100F400000FF09040100020A000000070501024039
:100F5000000107058102400001000000840F000825
:100F60007A0F0008680F0008100342006F006F003E
:100F7000740030002E003000000008034F005000C5
:100F80005000000004030904250900080D0E0008A4
:100F9000CB090008D1090008E1090008F10A00089E
:100FA000650B00083B0C000839090008DD0D00083E
:100FB000E10C0008D10C0008510E0008001002409E
:100FC0000030024000ED00E0000C0140001000087D
:100FD00000200240005C0040009600000000080075
:1010000000500020556D0008E96C0008EB6C0008EA
:10101000ED6C0008EF6C0008F16C000800000000A7
:10102000010000036467000000000000F36C00088A
:10103000F56C000800000000F76C0008F96C00086F
:101040009D6D00089D6D00089D6D00089D6D000858
:101050009D6D00089D6D00089D6D00089D6D000848
:101060009D6D00089D6D00089D6D00089D6D000838
:101070009D6D00089D6D00089D6D00089D6D000828
:101080009D6D00089D6D00089D6D00089D6D000818
:10109000016D00089D6D00089D6D00089D6D0008A4
:1010A0009D6D00089D6D00089D6D00089D6D0008F8
:1010B0009D6D00089D6D00089D6D00089D6D0008E8
:1010C0009D6D00089D6D00089D6D00089D6D0008D8
:1010D0009D6D00089D6D00089D6D00089D6D0008C8
:1010E0009D6D00089D6D00089D6D000800000000CA
:1010F00000000000000000000000000000000000F0
:0C11000000000000000000005FF808F193
:10110C000348044B834202D0034B03B1184770478A
:10111C003402002034020020000000000548064B79
:10112C001B1AD90F01EBA301491002D0034B03B1D9
:10113C0018477047340200203402002000000000E1
:10114C0010B5064C237843B9FFF7DAFF044B13B103
:10115C000448AFF300800123237010BD340200203B
:10116C0000000000A06D000808B5044B1BB1044939
:10117C000448AFF30080BDE80840CFE70000000052
:10118C0038020020A06D000870B50F4B0F4DAB421C
:10119C00A3EB050607D00024B61055F8043B013428
:1011AC009847A642F9D805F0F5FD094D094B5E1B91
:1011BC00AB424FEAA60606D0002455F8043B013496
:1011CC009847A642F9D870BD287500082875000804
:1011DC00287500082C75000870B5860747D0541E7A
:1011EC00002A3ED00346CAB201E0013C39D303F8D1
:1011FC00012B9D07F9D1032C2CD9CDB205EB05257C
:10120C000F2C1A4605EB054534D9A4F1100C2CF023
:10121C000F0603F1100EB6444FEA1C1CC2E9005530
:10122C00C2E9025510327245F8D10CF1010214F0EA
:10123C000C0F03EB021204F00F0C13D0ACF10403EF
:10124C0023F003030433134442F8045B9342FBD1B1
:10125C000CF003042CB1C9B21C4403F8011BA342CB
:10126C00FBD170BD64461346002CF4D1F9E703465C
:10127C001446C0E7A446E1E770B5114E0546336845
:10128C000C46BBB12146284600F0FEF8431C014633
:10129C000CD0C41C24F00304A04205D02846611ACB
:1012AC0000F0F2F8013001D0204670BD4FF0FF3451
:1012BC00204670BD194600F0E7F83060E2E700BF49
:1012CC008C0300202DE9F843CD1C25F003050835CF
:1012DC000C2D38BF0C25002D064618DBA94216D85C
:1012EC00DFF8DC8000F0CCF8D8F80420A2B114466A
:1012FC0003E0636822467BB11C4623685B1BF8D471
:10130C000B2B1FD89442636854D053600CE00C2311
:10131C0033600020BDE8F88329463046FFF7ACFF68
:10132C00431C044619D00560304600F0ABF804F1BC
:10133C000B00231D20F00700C21A1CBF1B1AA35060
:10134C00BDE8F88361199442256014BF5160C8F858
:10135C000410635163684B60E6E7D8F804701FB360
:10136C003C467F68002FFBD123683946304604EB9E
:10137C00030900F089F8814516D123683046ED1A2F
:10138C002946FFF779FF01300ED02368D8F80420E6
:10139C002B442360536883B1A34203D01A465B6885
:1013AC009C42FBD10023B0E70C233046336000F0A5
:1013BC0069F8AEE7C8F80430B6E7C8F80470B3E7CC
:1013CC008C030020002950D038B551F8043C0C1F78
:1013DC00002BB8BFE418054600F052F8274A1368F2
:1013EC002BB1A3420CD92168601883422CD028461B
:1013FC0063601460BDE8384000F044B8A3420FD8D5
:10140C001A465B68002BF9D111685018844217D02A
:10141C002CD3636054602846BDE8384000F032B8E5
:10142C0011685018A04214D020D82168601883424B
:10143C00EFD118685B680844C4E900035460EAE71C
:10144C0023680B441360E6E718685B680844206067
:10145C00CDE720680144501883421160DBD1D3E9F9
:10146C0000040144C2E90014D5E770470C23284658
:10147C002B60BDE8384000F005B800BF9003002099
:10148C00704700BF704700BF002238B5064D0446B8
:10149C0008462A6000F00AF8431C00D038BD2B68BF
:1014AC00002BFBD0236038BD94030020044A05496F
:1014BC001368002B08BF0B46184410601846704781
:1014CC009803002080170020024B01461868FFF794
:1014DC00F9BE00BF00000020024B01461868FFF760
:1014EC0071BF00BF0000002084B0134B9A6942F01A
:1014FC0010029A619A6902F010020092009A9A699D
:10150C0042F020029A619A6902F020020192019A3B
:10151C009A6942F008029A619A6902F008020292F2
:10152C00029A9A6942F004029A619B6903F00403DF
:10153C000393039B04B070470010024070B594B045
:10154C00282200210DEB0200FFF746FE0024059433
:10155C0006940794089409940194029403940494B7
:10156C0001250A954FF480330B930E9502261196A4
:10157C0012934FF4801313930AA804F0B7FA0F23B5
:10158C000593069607944FF48063089309942946B3
:10159C0005A804F0EBFC102301934FF48003049393
:1015AC0001A804F099FD14B070BD0000224B00227C
:1015BC0003E0002103F8011B0132B2F5C67FF8D31A
:1015CC001D4B04229A6303F18C02C3F888211B4A39
:1015DC001268D168196392685A63174B1B7853BB16
:1015EC0010B582B00EE0144A012102F87C1B03E016
:1015FC0053F8041B42F8041B11498B42F8D30E4BD1
:10160C001B78B3B9FF238DF807300E4C22680432D7
:10161C00FC210DF1070002F023FD236819789DF8D9
:10162C0007209142DFD000F09BFA034B00221A7086
:10163C00E5E702B010BD70479C030020B00000200D
:10164C0000FD0008B4000020174B1B788BB97047C5
:10165C000133032B10DC144A1A4492F88020002A20
:10166C00F6D0114C616A012000FA02F2114361625A
:10167C00EEE710B50023ECE700F0ECFD012400E0F0
:10168C0001340C2C0CDC084B5A6A0123A3401A427F
:10169C00F6D0064B53F82430002BF1D09847EFE7E7
:1016AC0002F078FA10BD00BF9C0300207C000020E3
:1016BC0008B503F0F9FB184A536823F0E06343F0D4
:1016CC0080635360FFF73AFFFFF70EFF00F02CF832
:1016DC00124B134A5A6000F0B9FFFFF767FFFFF790
:1016EC00B3FF01F027F802F097FC01F0E5FD02F0E2
:1016FC00CDFC62B602F0EEFC01F0D6F801F03AFC3B
:10170C0000F068FA01F0D8F901F0BCFB01F030FEF2
:10171C0000F090FFEEE700BF00000140280500201C
:10172C00010000037047000008B500220F49104863
:10173C0002F030FD70B90F490D4802F042FD60B95E
:10174C000D490B4803F043FB50B9094802F040FD2A
:10175C0048B908BDFFF7E6FFEDE7FFF7E3FFEFE75A
:10176C00FFF7E0FFF1E7FFF7DDFFF2E7FC000020F9
:10177C0038050020E8010020B80000200020704748
:10178C000020704710B5096801F0A0FD044C054914
:10179C00204603F02BFB204603F047FB002010BD36
:1017AC00380500203C08002010B5064C00220649E4
:1017BC00204603F013FB0549204603F017FB0020DD
:1017CC0010BD00BF38050020FC0700203C0800209D
:1017DC00094BD3F8B832D3F814320BB1012070474F
:1017EC0010B5054C0A460146204603F0F7FA204690
:1017FC0003F002FB10BD00BF38050020022805D8FD
:10180C00DFE800F005040200012070470220704759
:10181C0002680E4B9A4200D0704700B583B003F5B6
:10182C00DA33DA6942F40002DA61DB6903F40003AB
:10183C000193019B00221146142003F09FFB1420FE
:10184C0003F0ACFB03B05DF804FB00BF005C004090
:10185C0008B500F50C71D0F8680202F0D1FC08BD97
:10186C0008B500EB4113D3F83C21D0F8680202F024
:10187C00F4FC08BD08B500EB4113DA6BD0F8680234
:10188C0002F031FD08BD08B5D0F8680202F0D2FDB7
:10189C0008BD10B504468368022B09D10121D4F888
:1018AC00680202F0B0FDD4F8680202F084FD10BDAD
:1018BC00FFF738FFF2E7000010B50446D0F86802D5
:1018CC0002F0A4FDA36923B1024A136943F0060395
:1018DC00136110BD00ED00E008B5D0F8680202F00D
:1018EC009EFD08BD10B504461D48C0F86842C4F8FA
:1018FC00C0021C4B03600823436002238360002357
:10190C008361C361036203F079FC30BB18230022AE
:10191C001146D4F8C00204F0BBF8582300228021F1
:10192C00D4F8C00204F0B4F8C02300228121D4F80A
:10193C00C00204F0ADF84FF4887300220121D4F8F2
:10194C00C00204F0A5F84FF4807300228221D4F871
:10195C00C00204F09DF8002010BDFFF7E3FED5E7B0
:10196C00DC0A0020005C004008B5D0F8C00203F08F
:10197C00C3FCFFF743FF08BD08B594461A466346FF
:10198C00D0F8C00203F0E3FCFFF738FF08BD08B540
:10199C00D0F8C00203F017FDFFF730FF08BD08B503
:1019AC00D0F8C00204F006F8FFF728FF08BD08B510
:1019BC00D0F8C00204F035F8FFF720FF08BDD0F8CE
:1019CC00C03211F0800F06D101F07F0103EB4113FF
:1019DC0093F82A01704701F07F0103EB411393F850
:1019EC002A00704708B5D0F8C00203F09CFCFFF742
:1019FC0005FF08BD08B5D0F8C00203F03CFDFFF7A9
:101A0C00FDFE08BD08B5D0F8C00203F00AFDFFF7D3
:101A1C00F5FE08BD08B5D0F8C00203F025FD08BDE1
:101A2C0000487047BC0800207047704712230B8099
:101A3C0000487047E800002004230B8000487047E2
:101A4C00E4000020002393421ED200B510E00CF1FC
:101A5C00370C01F813C000014FEA430C0CF1010CD8
:101A6C004FF0000E01F80CE00133DBB2934209D2C7
:101A7C004FEA107CB0F1204FE9D20CF1300C01F898
:101A8C0013C0E8E75DF804FB7047000038B50B4B5A
:101A9C00D3F8E807D3F8EC47D3F8F037C01800D1E7
:101AAC0038BD074D08222946FFF7CCFF042205F16B
:101ABC0010012046FFF7C6FFF2E700BF00F0FF1F42
:101ACC00CA00002008B51A230B80FFF7DFFF01487E
:101ADC0008BD00BFC800002008B50A4628B9054952
:101AEC00054802F0CCFF034808BD0249024802F049
:101AFC00C6FFF8E7480D0020B86D000810B50A467F
:101B0C00034C2146034802F0BAFF204610BD00BF2B
:101B1C00480D0020D06D000808B50A4628B90549C3
:101B2C00054802F0ACFF034808BD0249024802F028
:101B3C00A6FFF8E7480D0020E46D000808B50A463A
:101B4C0028B90549054802F09AFF034808BD024927
:101B5C00024802F094FFF8E7480D0020F06D0008F1
:101B6C0038B5154AFF2382F87C30022382F8803086
:101B7C0082F8813082F8823082F883300F4B104922
:101B8C0059608C320F4B03E013F8011B02F8011B58
:101B9C000D498B42F8D30D4A141FFC21204602F04C
:101BAC005FFA0B4D284602F0B7F94FF480722946C4
:101BBC00204602F0EBF938BD9C03002028050020DC
:101BCC0001000003146E0008346E00081C04002091
:101BDC0000FC0008A94B1B7803B970472DE9F047AE
:101BEC00A64C206A02F048F98046676A17F006078F
:101BFC005AD0A34E73684340226A03EA02090124B7
:101C0C0000252F46B4360AE03368102B01DC013373
:101C1C0033603368102B0ED00135640004361F2D51
:101C2C0042DC964B1B6A2342F6D014EA090FEBD028
:101C3C0000233360F0E7914BD3F880315B5D14EAFD
:101C4C00080F17D08E498A6822438A60022BE3D191
:101C5C0072B6DFF828A2DAF828302343CAF8283005
:101C6C0062B602F08BFA05F11C030AEB430AAAF8E0
:101C7C000400D1E7274382498A6822EA04028A6079
:101C8C00012BC9D172B6DFF8F4A1DAF8283023435E
:101C9C00CAF8283062B602F071FA05F11C030AEB9F
:101CAC00430AAAF80400B7E7744B5B6A13F0200FE1
:101CBC002FD0734B93F82D2093F82E309A4243D2A9
:101CCC006F4B93F82D3003BB6D4991F82C200132EA
:101CDC00D2B281F82C20072A03D90A46002182F8B7
:101CEC002C1067498A6942F47F028A61634A5279EF
:101CFC00002A00F08C800A46496992F82C40C4F105
:101D0C0017040120A0400143516101335C4A82F861
:101D1C002D305A4B5B6A13F0020F40F08680574B04
:101D2C005B6A13F0060F0DD072B65448836A54499F
:101D3C000A6923EA02038C6822401343836262B669
:101D4C00C1F80480BDE8F0874D4D4FF0000985F8CF
:101D5C002D90E86802F090F8060E95F82C30474A62
:101D6C001A44947C84EA10649674DB00143305EBFB
:101D7C004303093301214A4610E01878404D95F889
:101D8C002F50A84201D8013018701D783C4890F8AB
:101D9C002F00854209D0013249000233072A8FDC1B
:101DAC000C42EAD000201870F5E716EA010002D0C8
:101DBC00324D6D792DB90028EDD13048407900288D
:101DCC00E9D12E484079C0B12D4890F82C502B48C1
:101DDC002844857A0D43857258780028DBD0DFF8CB
:101DEC009CE0BEF81A5000F007004FF0010C0CFA02
:101DFC0000F02843AEF81A00CDE7214890F82C509B
:101E0C001E482844857A25EA01058572E4E71C48BA
:101E1C00416990F82C40C4F117040122A240D2432E
:101E2C0002F47F02114341616FE702F0A7F900F061
:101E3C000F035B004FF0010A0AFA03FA02F0A4F94F
:101E4C00B0F5FA7F01D34FEA4A0A0D4CA369E26957
:101E5C001343A361094BD3F87C514FF001090026C1
:101E6C0004F59A741EE00123637002F087F9206177
:101E7C00034A5369E1680B4353612EE09C03002035
:101E8C00480F002013F0080F27D00423637002F0D2
:101E9C0075F9206121E00023237001364FEA4909CE
:101EAC00183403350F2E3FF73AAF63782BBB744AC7
:101EBC00528B12EA090F02D162693A421DD02B787B
:101ECC0013F00C0FCFD013F0040FDBD0052363708D
:101EDC006C4A5369E1680B4353612B7813F0020F82
:101EEC00D9D0674B5B8B13EA090FD4D023EA0903D3
:101EFC00634A538301232370CFE7013B042BCCD8D7
:101F0C00DFE803F0035C7890A6002B7813F0200F29
:101F1C000BD05B4B5B8B13EA090F06D1636913B1D2
:101F2C0033EA080301D1002363706378012BB4D129
:101F3C0002F024F92369C31A6A789A4233DC2B78AD
:101F4C0013F01C0F27D1AB7813F00F0F1BD0237895
:101F5C0023B1032363700023A37018E00223637082
:101F6C00AB7803F00F03013B5B000133464A52F898
:101F7C002330A36013EA0A0F09D0424A5369E1687F
:101F8C000B43536103E0032363700023A37002F03F
:101F9C00F5F8206181E713F0180FF8D00323637074
:101FAC000023A370F3E7636813EA0A0F3FF475AFDD
:101FBC00344A5369E1680B4353616EE7304B5B8BDA
:101FCC0013EA090F06D1636913B133EA080301D18F
:101FDC0001232370237853B9A36813EA0A0F3FF443
:101FEC005CAF284A5369E1680B43536155E7002302
:101FFC00637052E702F0C2F82369C01A6B7883420F
:10200C003FF74BAFA3781033DBB2A370AA7802F082
:10201C007002934202D3002363703EE702F0AEF8E5
:10202C0020613AE702F0AAF82369C01AAB785B008A
:10203C0003F01E0383423FF730AF0123637002F0BD
:10204C009DF820610F4A5369E1680B43536124E703
:10205C000B4B5B8B13EA090F04D163696BB133EA49
:10206C0008030AD0636813EA0A0F3FF416AF054A57
:10207C005369E1680B4353610FE7002363700CE76E
:10208C009C030020480F0020346E00081F282BD81A
:10209C0001F00F0311F0800F12D1214A03EB430121
:1020AC0002EBC101D1F848114FF0010C0CFA00F011
:1020BC0003EB430302EBC3020143C2F84811704720
:1020CC00174A03EB430102EBC101D1F848114FF061
:1020DC00010C0CFA00F003EB430302EBC30221EA00
:1020EC000001C2F8481170475F2810D80D4B5B6A8D
:1020FC0013F0200F0BD011F0800F09D10C38084BC6
:10210C0003EB400301F00F0161F07F0199727047FE
:10211C000C38034B03EB400300229A72704700BF4C
:10212C00480F00209C0300200F290BD800F01F0043
:10213C00054B53F8202001EB4101044B03EBC10389
:10214C00C3F83821704700BF346E0008480F0020D8
:10215C00294A1388184002F59A720121002343E0A2
:10216C004FEA430C0CF0180C03F003044CEA040C7B
:10217C00012404FA0CF4556925EA04045461013372
:10218C00183249000F2B2ADC0842F8D00024547076
:10219C001A4CD4F87C5103EB43042C5D14F0010F62
:1021AC00DED04FEA430C0CF0180C03F003044CEA9D
:1021BC00040C0CF12C05104C04EB85040025656017
:1021CC000E4CA48B0C42DAD1012404FA0CF40B4D06
:1021DC002D6A2542D3D0556925435561CFE730BCD4
:1021EC0070470133183249000F2B03DC0842F8D03A
:1021FC0030B4CBE7704700BF480F00209C03002091
:10220C0030B58646104BD3F88001104901230022CB
:10221C0008E00F4D2C6924EA03042C6101320431CF
:10222C0001305B001F2A0EDC13EA0E0FF6D00024DF
:10223C000C6004783F2CF1D8002CEAD1044D2C69A9
:10224C001C432C61EAE730BD9C030020FC0F0020EE
:10225C00480F0020A64BD3F8803133B370470024CD
:10226C005C70881001F0030202EBC0020432012002
:10227C0000FA02F2DA605C614FF0FF325A600144FE
:10228C0018330F29EBDD9B4A002313809360D36036
:10229C00D361974AD2F88841C2F8804104F12001F9
:1022AC00C2F888111D461E46A1E0F0B585B000218C
:1022BC00914BE6E78E48026ADF00FF21B9400A43E2
:1022CC000262012B40F09280082200E001320F2ABA
:1022DC0000F38C80A15C3F29F8D985490F6A012055
:1022EC0000FA02FC27EA0C070F624F7AA2F1080EE3
:1022FC0000FA0EF03843487245EA0C05E6E74FEA5F
:10230C00C30CF02202FA0CF215437A4F38889E0067
:10231C000F2202FA06F630433880754E306A02FA04
:10232C000CF210433062012B19D00E465EE00132E4
:10233C000B2A16DCA05C3F28F9D96D48076A0126E8
:10234C0006FA02FC27EA0C070762477AA2F1080E8C
:10235C0006FA0EF63E43467245EA0C05E7E70822FC
:10236C00E6E70E4642E0022B03D0614A022191714E
:10237C003CE05F4A92F88320052AF6D15D4A0020A2
:10238C0082F82C0082F82D0045F47F05D06840F0CF
:10239C007F40D060042929D1554A0121517125E093
:1023AC001BB1534A0321917120E051490A6A42F052
:1023BC00EF020A6245F0100518E01BB14C4A0321EC
:1023CC00917113E04A490A6A42F00E020A62494AC4
:1023DC00118841F00F01118045F0F1050126C2F87A
:1023EC00406103E0D900FF228A4015430133032BDF
:1023FC0022DC3F4A1A4492F880104A1E0B2AF5D868
:10240C0001A050F822F000BF0B230008C1220008E5
:10241C00F123000873230008F9230008AD230008FA
:10242C00F1230008C7230008F923000873230008D0
:10243C00F1230008F1230008002411E02D4AD26892
:10244C00134222D000230193294B5B79D3B1022391
:10245C0002936946294B53F8340002F0C1FD013454
:10246C001F2C28DC254B03EBC4039B880093204BCB
:10247C001A6A0123A3401A42E0D0002301930123DE
:10248C000293E6E701230293E3E72B42E7D0022312
:10249C000393A4F10803072B02D901230193D8E776
:1024AC00134B5B7AA4F10802134113F0010FF4D023
:1024BC0002230193CDE70E4B186A0E4CE3681843C8
:1024CC0001F0DAFCA06004230093012301930223A2
:1024DC00039369460A4802F083FD3EB1044AD2F8E0
:1024EC008831C2F87C313033C2F88831002119E0D0
:1024FC009C030020480F00207C100020B46E0008C4
:10250C00000C01400133434AD2F8802104F1080049
:10251C0002449A4205D91A783F2AF3D800221A703D
:10252C00F0E7013103290CDC3A4B0B4493F8803073
:10253C00012BF6D1374BD3F88031CC0003EBC10320
:10254C00E1E7344B5B6A13F0200F3CD0314BD3F8EE
:10255C0080311A7C5AB9304A022182F82E105B7CE9
:10256C004BB92D4B042283F82F20002210E02A496E
:10257C0081F82E20F3E7284A82F82F30F5E702F194
:10258C001401254B03EB410300215972997201325E
:10259C003F2AF4DD1F4BD3F87C21002301E00133EB
:1025AC0003320F2B0CDC117811F0100FF7D094784C
:1025BC0063F07F001434184901EB44018872EEE794
:1025CC00144B5B795BB10122002314490CE0114AD6
:1025DC001A44FF2191720133072BF8DDF3E7002336
:1025EC00FAE70133183152000F2B09DC0A48008836
:1025FC001042F6D0084CE069CD682843E061F0E762
:10260C004FF6FF70FFF7A4FD024B186AFFF7F8FDB9
:10261C0005B0F0BD9C030020480F00207C1000206A
:10262C00034B5A6902435A619A690A439A6170478B
:10263C00480F002010B5044CA169606901F0AEFB95
:10264C0000236361A36110BD480F0020044B0022DE
:10265C0003E0002103F8011B0132972AF9D97047D6
:10266C00FC1100202DE9F0410C4617461E460513BF
:10267C002E49C5EBC50001EB8000C462886820447C
:10268C0088602B4B9B793BB1294B9B799BB1284B99
:10269C009B791BB3BDE8F0812046FEF715FFC5EB17
:1026AC00C502224B03EB820318630028ECD1204BAC
:1026BC0001229A71E8E7C5EBC5021C4B03EB8208BB
:1026CC00D8F830303B602046FEF7FEFEC8F83400E8
:1026DC000028DCD1164B01229A71D8E7C5EBC50353
:1026EC00124F07EB83077B6B3360A000FEF7ECFE09
:1026FC00B86380B101210E4BD9700C4BC5EBC502F0
:10270C0003EB820282F828100699D1631346079ACC
:10271C001A64002307E0064B01229A71BAE70022E3
:10272C0020F8042B0133A342F9DBB3E7FC110020A2
:10273C009C030020074B9B681A46002B07DB1211E9
:10274C000449CA60FF2B01DC1022CA60704703F1F8
:10275C000F02F4E7FC110020014B01221A707047A4
:10276C00FC11002002E01C330B4A53620A4A536AE4
:10277C009832934204D21A78002AF4D0012300E054
:10278C0000231BB1044B00229A617047024B0022BC
:10279C005A70DA61704700BFFC1100202DE9F0413E
:1027AC00404B9A694FF6FF739A4210D03D4B5B78C1
:1027BC00002B74D03B4B5A6AD1689B6919449068C2
:1027CC0000EB030C146904EB8304002539E0FFF7DC
:1027DC00C9FFEBE70F4617F8011B664616F801CB4D
:1027EC00614514D9A1EB0C02D2B208FB02F2B2FB88
:1027FC00F3F3DBB261450ED96344D9B2DEF8143081
:10280C009847638801336380B44639460AE0ACEBE1
:10281C000102D2B2E9E7ACEB0301C9B2EEE7013138
:10282C000CF1010C04341F4A936901339361D36991
:10283C000133D361D26893FBF2F002FB103303B97E
:10284C000125184B9869D3F824E0DEF8043098423F
:10285C0017DAB5B92388002BE1D0B4F802804345D0
:10286C00B8D80E4616F8011B674607F8011B0D4B2E
:10287C005A6A52699869904700232380BC463146B6
:10288C00D0E798420BDBDEF818309847054B4FF633
:10289C00FF729A615A6A1C325A62FFF763FFBDE8F5
:1028AC00F08100BFFC11002008B50F4B1B78B3B1B1
:1028BC000D4BDB789BB10D4B1B786BB10B4B5B78E5
:1028CC0053B90A4B00221A704FF6FF729A6103F14A
:1028DC0028025A6201225A70044B5B7803B908BD76
:1028EC00FFF75CFFFBE700BF9C030020FC110020FE
:1028FC0010B4104B01249C7000249C801961B0F51D
:10290C00804F15D2030BC3EBC3039B002833094C38
:10291C0023442362C0F30B00606101445B6899425D
:10292C0006DC0549A1FB0212D208A2800022A2708B
:10293C0010BC7047FC110020CDCCCCCC244B1B69B7
:10294C000BB9012070472DE9F0410446204A013BA8
:10295C0013619378B3B91346126A16695D6906EB75
:10296C0085089B888BB993685855002326F8253029
:10297C00174B1A6A5269014658699047144A5369B1
:10298C00013353610020BDE8F08136F82530BBB12E
:10299C00D3685F5D93685F550D4B1A6A526939466F
:1029AC0058699047A7420ED0094B9A8826F82520E3
:1029BC000022A8F802201A6AD2685B69D454DDE7B9
:1029CC0093685F5DEEE7002326F82530D6E700BF5D
:1029DC00FC110020C908044B33F81120034B03EB06
:1029EC0040035A80704700BFB46F00089412002057
:1029FC00704700002C4A0023137053705364936487
:102A0C0005E0294A02EB43020021518001331F2BC0
:102A1C00F7DD002310E0072A19D0234A1178012092
:102A2C00984001431170516C4FEAC30CFF2000FA1F
:102A3C000CF0014351640133032B0FDC1B4A1A4485
:102A4C0092F88020032AE6D0072AF4D1E3E716484F
:102A5C004278012199400A434270DEE7124B1B7801
:102A6C0003B9704700B585B0114B0193114B00931E
:102A7C0002AB03AA20214FF48050FFF7F3FD0B4B60
:102A8C009B797BB105B05DF804FB039A511C039153
:102A9C0000211170029A501C0290117001331F2BEF
:102AAC00F3DDEFE70023FAE7941200209C030020EB
:102ABC00FD290008E129000838B5274B1B78002BAD
:102ACC0049D0264B1B78002B45D0234B1B7A13F097
:102ADC00010F0BD0214A546C13F0020F02D01F4B84
:102AEC009B6C1C4301F050FB002302E00024F3E735
:102AFC0001331F2B09DC194A02EB43025288824234
:102B0C00F6D901229A401443F2E7002509E0EB00C4
:102B1C0024FA03F0C0B2FF2199409840FFF780FDE2
:102B2C000135032D17DC0D4B1B782B4113F0010FD6
:102B3C00F6D00A4B5B782B4113F0010FE7D0E8007D
:102B4C0024FA00F3DB43DBB2FF21814003FA00F0EF
:102B5C00FFF766FDE4E738BD9C03002094120020CB
:102B6C0010B500210C461F2307E00E4A02EB43026E
:102B7C00B2F802C051806146013B002B0CDB0122F4
:102B8C009A400242F8D0002CEFD1064A02EB4302E5
:102B9C0051889E460124EFE71CB1024B03EB4E0318
:102BAC00598010BD9412002010B500210C460B4624
:102BBC0007E00E4A02EB4302B2F802C051806146B4
:102BCC0001331F2B0CDC01229A400242F8D0002C5E
:102BDC00EFD1064A02EB430251889E460124EFE7EF
:102BEC001CB1024B03EB4E03598010BD9412002014
:102BFC0008B507287ED8DFE800F004081A292B4214
:102C0C0059760846FFF7ACFF08BD0846FFF7CCFF26
:102C1C00FAE701331F2BF7DC01229A400A42F8D065
:102C2C00664A02EB43024FF47A705080F1E70023BE
:102C3C00F0E701331F2BE7DC01229A400A42F8D05F
:102C4C005E4A02EB430200205080F2E70023F1E7DA
:102C5C005A4B5A6C0A435A649A6C22EA01029A64DF
:102C6C00002300E001331F2BCEDC01229A400A42E4
:102C7C00F8D0524A02EB430200205080F2E74F4B4F
:102C8C009A6C0A439A645A6C22EA01025A64002331
:102C9C0000E001331F2BB7DC01229A400A42F8D026
:102CAC00464A02EB430200205080F2E7434B5A6C39
:102CBC0022EA01025A649A6C22EA01029A64A3E79E
:102CCC003E4A02EB43020020508001331F2B0CDCE8
:102CDC0001229A400A42F3D0384A02EB43024FF4E5
:102CEC007A705080F1E70023F0E7344B00225A64ED
:102CFC009A6489E710F0800F86D010F0010F37D15D
:102D0C0000231F2B1ADC01229A400A4206D02B4AC0
:102D1C0002EB43024FF0000CA2F802C00133F0E7C3
:102D2C0001229A400A4206D0244A02EB43024FF495
:102D3C007A7CA2F802C001331F2BF1DD10F0020FD8
:102D4C0018D01E4B5A6C0A435A649A6C22EA010240
:102D5C009A6400231F2B3FF757AF01229A400A4277
:102D6C0004D0164A02EB4302002050800133F1E7F5
:102D7C000023E1E710F0040F16D0104B9A6C0A43B5
:102D8C009A645A6C22EA01025A6400231F2B3FF703
:102D9C003BAF01229A400A4204D0084A02EB43029C
:102DAC00002050800133F1E7044B5A6C22EA0102F7
:102DBC005A649A6C22EA01029A6425E79412002064
:102DCC00054B00221A70C9089B68044A32F811207E
:102DDC0023F81020704700BFE0120020B46F0008E9
:102DEC0070470000234BB3F8802040F60B439A4207
:102DFC0000D0704710B584B001231E4A13711E4CCD
:102E0C002370002363708020FEF75EFBA06020B16E
:102E1C00184B9B79F3B104B010BD164B01229A717B
:102E2C00F6E7154A9268002122F8131001333F2B64
:102E3C00F7DD124B0193124B009302AB03AA402116
:102E4C004FF40050FFF70EFC0A4B9B79002BE2D19C
:102E5C0000230BE00023EAE7039A511C03910021A5
:102E6C001170029A501C0290117001333F2BF3DD4C
:102E7C00D1E700BF9C030020E0120020ED2D0008DC
:102E8C00CD2D000838B5234B1B7903B938BD01F0A3
:102E9C0075F9214B5B6883420AD01F4A5060537806
:102EAC000133DBB25370072B2DD9002454702BE067
:102EBC00194B5B7801259D402C4601F065F9154BAB
:102ECC001B7A13F0010F1AD0134B1B78CBB1B0F552
:102EDC00FA7F19D245F47F4416E00133072B13DC3B
:102EEC000D4A9168527803EBC20231F812208242EB
:102EFC00F3D903F1080101228A401443EDE70023C2
:102F0C00ECE70023EAE700244FF6FF712046FFF7B9
:102F1C0087FBBBE79C030020E0120020034BDB681F
:102F2C00034A52F8212043F820207047EC1200206D
:102F3C00F46F0008074B83FB0023A3EBE07303EB58
:102F4C004302801A0130044AD26800EB830011540A
:102F5C00704700BF56555555EC120020014B01220D
:102F6C009A707047EC120020014B01225A70704786
:102F7C00EC1200201A4B1B78A3B1194B5B788BB168
:102F8C00184B1B7833B9184B1B68DB6D13B9154BF9
:102F9C0001221A70134B1B78012B04D0114B1B7898
:102FAC00022B0AD070470F4B9B78002BF6D00D4BA1
:102FBC0000229A7002221A70F0E70A4B5B78002B01
:102FCC00F0D0084A002353701370074B19689020F7
:102FDC00886519689268CA651B6891229A65E1E751
:102FEC009C030020EC1200205000002070B5054618
:102FFC000E46002405E015F8011B2046FFF78EFF56
:10300C000134B442F7DB70BD70B505460E460024A2
:10301C0005E015F8011B2046FFF78CFF0134B44284
:10302C00F7DB70BDF0B585B09A4AD2F88831C2F89A
:10303C00843103F16001C2F888111C78621ED2B28F
:10304C00FD2A00D90324944AFF21117001219148D3
:10305C004170002050709070D1705D780DB94FF4B4
:10306C0080751A78032A39D004FB05F18A4B596014
:10307C00DB78002B39D0894B0193894B009302AB41
:10308C0003AA0020FFF7EEFA824B9B797BB9824BA7
:10309C00DB78002B33D0804A53689B000533936058
:1030AC007D4EB068FEF710FAF06000282CD0794BFA
:1030BC0093F806C0BCF1000F40F0C380764BDA6881
:1030CC0000211160DE68321DDA60DB785BB3724B75
:1030DC005B6802F82310039A02982BE05B79A52B0E
:1030EC00C2D16D4B0022DA70BEE76C4B01936D4B75
:1030FC00009302AB03AA0020FFF7B4FAC4E76B1DE0
:10310C009B00654A9360CBE7624B01229A71CEE734
:10311C00614AD2684FF0FF3142F823100133EA1CA8
:10312C009A42F5DAD7E70023F9E7002302F8013BCE
:10313C0000F8013B584B5968039B0B449342F4D85D
:10314C000127002300E00133A34208DA514AD2F8E8
:10315C0084211A449278FF2AF5D06746F3E70022BF
:10316C0017E0DFF830C1DCF8841104FB023019449D
:10317C0091F802E0039901F800E0DCF8841119449D
:10318C0091F802C0029901F800C00133A342E8DBB8
:10319C000132AA420EDA5FB192FBF4F304FB132363
:1031AC0004FB023380210398C1540298C154EFE709
:1031BC000023EBE7384BDB78002B44D0364B5968B7
:1031CC000398FFF713FF384B19684A6822F07042D6
:1031DC004A6019684A6842F030424A601B684FF0F6
:1031EC0000421A612B4B01229A831A6A22F00102C7
:1031FC001A622E4A11684B6943F001034B61126845
:10320C00D36943F48043D361234BDB78002B3AD052
:10321C00274B1B684FF455721A60254B1A68022114
:10322C0051601A680C32234B19680A661A68566684
:10323C001968194A9068C8651B6891219965002323
:10324C00137005B0F0BD144B59680398FFF7DCFE02
:10325C00154A11684B6823F0704323F470034B60DC
:10326C0011684B6843F0304343F430034B601368F0
:10327C004FF020421A61074B05229A831A6A22F0FA
:10328C0005021A62B5E70A4B1B6840F247321A6016
:10329C00C3E700BF9C030020EC120020692F00083C
:1032AC00292F0008412F000868000020640000202E
:1032BC005400002050000020034A1346002103F85C
:1032CC00101B9360D3607047FC120020134B9B685B
:1032DC0011B30133124A934201D3A2F580630F4A12
:1032EC00D2689A4219D000B503E00C4AD2689A42CF
:1032FC0010D00A4A10F801CBD2F808E08EF800C0C2
:10330C009360013931B10133054A9342EDD3A2F5F3
:10331C008063EAE75DF804FB70477047FC120020FD
:10332C000C17002082B002680192130203F47F0391
:10333C0043EA1263100A00F47F40034343EA02633A
:10334C000193002201AB04E013F8010B01F8010B0F
:10335C000132032AF8D902B07047002304E010F8B8
:10336C0001CB01F801CB01339342F8D37047000035
:10337C0030B595B0B24BDA689B689A4200F0CA83BC
:10338C00511CAF4BD96010788DF84F0003F5826358
:10339C00994204D3A3F5826303F11002DA60A84BBF
:1033AC001B78072B00F2AA83DFE813F008002A0031
:1033BC00650189012103370359038703F02810D0D5
:1033CC00FF2817D02028D5D19D4C2046FF2300F88C
:1033DC00043F0DF14F02012100F042FE0123237046
:1033EC00C8E7974B04221A7001210DF14F0000F031
:1033FC0019FEBFE701210DF14F0000F013FEB9E7F4
:10340C008F4B0022DA701B280ED9402800F028813F
:10341C00FF238DF84F3001210DF14F0000F002FE1B
:10342C00874B00221A70A5E79870864A125C01320D
:10343C005A700DF14F020121181D00F011FE2023CE
:10344C008DF80C309DF84F308DF80D301B2B00F2A1
:10345C00EB80DFE813F01C0034004B0061007E00B1
:10346C007E007E007E0082007E00E9007E007E00F1
:10347C0034007E00E900E900E9009F007E007E0038
:10348C007E007E007E00E900A300D2007E006E4B21
:10349C0018680DF10E010830FFF744FF684B02224B
:1034AC001A70FF238DF8123003AA06210DF11200B9
:1034BC0000F0D6FD072103A800F0B4FD5AE7042262
:1034CC000DF10E016148FFF748FF5D4B02221A70A7
:1034DC00FF238DF8123003AA06210DF1120000F023
:1034EC00BFFD072103A800F09DFD43E70DF10E0180
:1034FC005748FFF717FF524B02221A70FF238DF823
:10350C00123003AA06210DF1120000F0A9FD0721CB
:10351C0003A800F087FD2DE74B4B18688368B3F1C7
:10352C00FF3F03D1464B03221A7023E7444B022280
:10353C001A700DF10E010830FFF7F4FE03AA0621F4
:10354C000DF1120000F08CFD072103A800F06AFDBC
:10355C0010E73B4B03221A700CE772B63D4B9A6A8C
:10356C00029200229A6262B60DF10E0102A8FFF7D8
:10357C00D9FE334B02221A70FF238DF8123003AAA6
:10358C0006210DF1120000F06BFD072103A800F0DD
:10359C0049FDEFE62A4B05221A70EBE62E4C082269
:1035AC000DF10E012046FFF7D8FE254B02221A70B2
:1035BC00FF238DF8163003AA0A210DF1160000F036
:1035CC004FFD0B2103A800F02DFD0021234604F133
:1035DC00080206E018781478204318700131013283
:1035EC00013307293FF6C6AE1A4840790028F1D0BE
:1035FC001878147820401870F0E740220DF10E0175
:10360C001648FFF7AAFE0E4B02221A70FF238DF804
:10361C004E3003AA42210DF14E0000F021FD432152
:10362C0003A800F0FFFCA5E6FF238DF84F30012125
:10363C000DF14F0000F0F6FC014B00221A7099E6D8
:10364C00FC120020F4730008B00000201C040020C1
:10365C002C0500209C030020A6030020D80300208A
:10366C00A44C0DF14F020121204600F0F9FC062379
:10367C0004F8043C7EE6A04AD3780133DBB2D37065
:10368C00527893420BD39C4B1B7998420ED09B4A99
:10369C00D36A0133D362984B00221A706AE60DF19B
:1036AC004F020121934800F0DBFC63E6934A936BD5
:1036BC0083F004139363924AC2F8103CEBE78E4AF2
:1036CC00D1784B1CDBB2D370114481F810045278C2
:1036DC00934213D3894A936B83F004139363884A00
:1036EC00C2F8103C844B1B7998420ED0834AD36AA3
:1036FC000133D362804B00221A703BE60DF14F026E
:10370C0001217C4800F0ACFC34E67B4B9B78033BFE
:10371C00182B00F26081DFE813F01900320037003B
:10372C00400052005E016B005E017D0092005E0164
:10373C00D6005E015E015E015E0107011B013A01CC
:10374C005E014E015E015E015E0156016A4A92F80D
:10375C00133492F8121443EA012392F8111443EA39
:10376C00014392F8102443EA0263644840F8343F62
:10377C00644B19680422083100F008FCBAE7624B6C
:10378C001B68624ADA60B5E74FF00053604A1A6072
:10379C005D4B1B685D4ADA60ACE7584BD3F87C2173
:1037AC0000215C4B04E013F8010B02F8010B013112
:1037BC002F29F8D94FF6FF70FEF7CAFC9AE772B6BC
:1037CC004E48B0F91A304C4991F8124491F8132430
:1037DC0042EA042212B223EA020391F8104491F84F
:1037EC00112442EA042212B21343438362B681E7E6
:1037FC00424BD3F880210021464B04E013F8010B17
:10380C0002F8010B01311F29F8D94FF0FF30FEF7F8
:10381C00F7FC6FE7394CFF2384F87C3004F17C050E
:10382C0004F18002FC21284600F01AFC4FF480724F
:10383C003949284600F0AAFB012323705AE72F4987
:10384C0000220B4603F88C2BC1F888314A62C1F870
:10385C00802103E0002103F8011B0132EF2AF9D982
:10386C002D4800F059FB254B5B6BB3F1FF3F0DD19D
:10387C00224B1B6BB3F1FF3F3FF43CAF214B19685C
:10388C0004220C31254800F081FB33E71D4B1968ED
:10389C0004220831224800F079FBE9E70133032BBD
:1038AC0013D8154A1A4492F81014144A1A4482F880
:1038BC0080100029F2D0114C626A012000FA01F14B
:1038CC000A436262EAE70023E9E7FEF7C3FC01243E
:1038DC0000E001340C2C3FF60DAF084B5A6A012363
:1038EC00A3401A42F5D00F4B53F82430002BF0D0E4
:1038FC009847EEE700130020FC1200209C030020E8
:10390C0000000140B0000020580000200400FA051F
:10391C00EFBEADDE0C17002000FC0008CC0300202D
:10392C00D00300207C000020814A92F8111492F8F8
:10393C0012341B0443EA016392F8131443EA012383
:10394C0092F81414194392F81004FFF751F9D1E6C8
:10395C00774B93F810240F2A3FF6CCAE754BD3F867
:10396C007C3102EB420213440021734A04E012F84A
:10397C00010B03F8010B01310229F8D96C4B93F8B8
:10398C0010340120984080B2FEF7E2FBB2E6684B9F
:10399C0093F810241F2A3FF6ADAE664BD3F8801176
:1039AC00634B93F81104885493F810340120984019
:1039BC00FEF726FC9EE65E4B93F8111493F8100468
:1039CC00FEF764FB96E65A4B93F8111493F8100427
:1039DC00FEF7AAFB8EE6FF238DF84F3001210DF187
:1039EC004F0000F01FFB524B00221A7082E6FF289A
:1039FC0005D001210DF14F0000F014FBBAE4202397
:103A0C008DF80C30FF238DF80D30022103A800F047
:103A1C0009FB474B00221A70ACE4464BD3F88411D7
:103A2C00434AD378C854D3780133DBB2D37052787D
:103A3C0093420DD33E4B1A799DF84F309A4203D0E6
:103A4C003C4AD36A0133D362394B00221A7091E499
:103A5C000DF14F020121394800F002FB8AE4374C8A
:103A6C000DF14F020121204600F0FAFA221F14F842
:103A7C00011C4B1CDBB204F8013C0A449DF84F10AE
:103A8C0082F81014062B7FF475AC043C94F81004E7
:103A9C0094F8113494F812C494F8131494F814E4B0
:103AAC0094F8152442EA0E2241EA0C2143EA002044
:103ABC00FEF71EFF072323705CE4FEF73FFF68B19F
:103ACC001B4B1A799DF84F309A420ED0194AD36A83
:103ADC000133D362164B00221A704BE40DF14F02E6
:103AEC000121164800F0BCFA44E4124A936B83F0AF
:103AFC0004139363124AC2F8103CEBE7FF238DF8D2
:103B0C004F3001210DF14F0000F08CFA084B0022D0
:103B1C001A702FE40DF1020101A800F097FABDF81C
:103B2C00021009B915B030BD0198FDF751FEF9E747
:103B3C00FC1200209C0300200D1700200013002015
:103B4C000000014082B00E4B1B5C13F0100F0BD029
:103B5C000C4A12680192019A03F00F030C3302EB2A
:103B6C008303596002B0704713F0200F03D0064A4C
:103B7C0012680192EFE7054A12680192EBE700BF69
:103B8C001074000874000020700000206C000020ED
:103B9C0070470000784B5B7A03B970472DE9F0430E
:103BAC0087B0764B0193764B009304AB05AA0821A2
:103BBC004FF44050FEF756FD6F4B9879002800F0FB
:103BCC00BC8007B0BDE8F08301467BE012F0200F0B
:103BDC0000F0A180DFF8ACC1DCF800C0CDF80CC05F
:103BEC00AFB9694FD7F800C0DCF8184044F00104B5
:103BFC00CCF818403F68FC6944F00204FC61634C4B
:103C0C0027687C6844F400647C60012427468CB1EE
:103C1C00DDF80CC00024CCF80040DDF80CC0CCF86A
:103C2C002040DDF80CC0CCF81840DDF80CC0CCF806
:103C3C001C400446DDF80CC040F2DF1ECCF828E036
:103C4C00DDF80CC040F2CF7ECCF82CE0DDF80CC0D7
:103C5C0002F00F0E0EF10C0E0CEB8E0CCCF80410C7
:103C6C00DDF80C90C2F34001063159F821C04FEA3F
:103C7C00C20808F008084FF0680E0EFA08FE4CEA6D
:103C8C000E0C49F821C0DDF80CE0DEF82010920093
:103C9C0002F03C024FF0010C0CFA02F20A43CEF88F
:103CAC0020200133072B4EDC334A527A1A4112F092
:103CBC00010FF6D0304AD2F8801103F10802895C6A
:103CCC00FF2981D0059AD154049AD154304AD25C40
:103CDC0012F0100F3FF47AAFDFF8B8C0DCF800C078
:103CEC00CDF80CC0002D92D1274DD5F800C0DCF8D2
:103CFC00184044F00104CCF818402D68EC6944F0ED
:103D0C000104EC61214C25686C6844F480746C608F
:103D1C00012425467BE7DFF880C0DCF800C0CDF835
:103D2C000CC0002E7FF473AF174C2668F46944F076
:103D3C000404F4610124264669E704460646074656
:103D4C0005460023AEE72DB1124B1A68136843F0F9
:103D5C00010313602FB10B4B1A68136843F0010376
:103D6C001360002E3FF42DAF0B4B1A68136843F011
:103D7C000103136025E700BF9C0300209D3B000856
:103D8C00513B0008700000206400002060000020FF
:103D9C0010740008740000206C00002010B500EABC
:103DAC00010C41404FEA4C3303F400534FEACC0270
:103DBC0002F4E06213434FEACC1202F400421343C4
:103DCC004FEA9C0202F4804213434FEA1C50CCF39E
:103DDC00075213434A0702F000521343CA0402F07D
:103DEC00E0621343CA0502F0004213438A0302F057
:103DFC00804213434FEA111E0EF47F0213434FEA25
:103E0C00CC2202F470424FEA9C1404F47E742243D8
:103E1C00CCF30174224300F440600243C80600F066
:103E2C0070400243880200F07E700243080B00F4DD
:103E3C00403002430EF0406E42EA0E024FEA1C1C68
:103E4C000CF4604C090301F060414CEA0101044898
:103E5C00C0F81038C0F8102C024B196110BD00BF0F
:103E6C0000000140001001408002024BC058084085
:103E7C00704700BF0808014070B506464FF6FF7149
:103E8C000020FFF7F1FF04464FF6FF710120FFF70A
:103E9C00EBFF05464FF6FF710220FFF7E5FFC4F379
:103EAC004033EA0A02F01E021343E20802F0E00279
:103EBC001343E20902F480721343AA0102F47E4216
:103ECC001343A20002F480321343000100F460207B
:103EDC001843240504F07F6420432B0703F0405360
:103EEC0018432D0505F040452843304070BD0000B7
:103EFC00054B1A68054951601B68054A5A60054B09
:103F0C0000221A70704700BF5C0000202301674537
:103F1C00AB89EFCD1801002010B50446194B1B7866
:103F2C0083B9194B1B68DB6813F0010F24D1164BB6
:103F3C001A68022111611A6854611B6842221A61C5
:103F4C00002303E0FFF7D4FFEBE701330E4A1268BE
:103F5C00D26812F0010F03D042F20F729342F4DDDB
:103F6C0042F20F72934209DC074B1B68DB6813F0BB
:103F7C00140F05D1002000E0012010BD0120FCE74A
:103F8C000120FAE7180100205C00002070B50646FD
:103F9C000D4614461E4B1B785BB91E4B1B68DB6829
:103FAC0013F0010F2ED11B4B1B6801221A6100224A
:103FBC001CE0FFF79DFFF0E7013316490968C9685B
:103FCC0011F0010F05D042F20F7C6345F4DD0120A6
:103FDC0070BD42F20F718B4216DC0E4B1B68DB6816
:103FEC0013F0140F12D1023275460646A24207DABC
:103FFC003046AE4630F8023B2EF8023B0023DCE79D
:10400C000020E5E70120E3E70120E1E70120DFE7FD
:10401C00180100205C000020014B00221A6270473E
:10402C004017002000228A420DDA30B4064B1C6A7D
:10403C00651C1D6210F801CB03F804C001328A42E2
:10404C00F4DB30BC7047704740170020034B036013
:10405C001A8C0A8000221A62704700BF4017002099
:10406C0010B590F800E0002308E012F803C08CEAC9
:10407C000E0C054C14F80CE001339BB28B42F4DBB4
:10408C0080F800E010BD00BF187400080E4B002231
:10409C005A609A600521D9600C4B19688B6943F4FE
:1040AC0000638B610A4B19682F208862196840F2F3
:1040BC00E730C86219680120086019684A601968FD
:1040CC008A601B68DA607047641700206400002067
:1040DC007800002008B5254A13685B6A9BB2244916
:1040EC000B801268126912F0010F36D04A68013247
:1040FC004A60B3F5617F01D900220A801B4B1B6813
:10410C0000221A611A4AD3680133D360272B1EDDB3
:10411C0013460022DA60174AD3790133DBB2D3712C
:10412C0003F01F01D17113F0070F03D1137A83F041
:10413C000203137259B90F4A137A83F001031372F5
:10414C00936B83F0041393630B4AC2F8103C084A38
:10415C00936801339360092B00DC08BD13460022E1
:10416C009A60FEF701FFFEF7F7FAF6E778000020F9
:10417C00641700209C03002000000140014B58688C
:10418C00704700BF64170020014B1888704700BFB0
:10419C006417002098B108B50346D0F8B40210B1EA
:1041AC000020C3F8B40209B1C3F8B012012183F89E
:1041BC009C121A701846FDF795FB002008BD0220D2
:1041CC00704719B1C0F8B412002070470220704734
:1041DC0008B5FDF7C9FB002008BD08B5D0F8B4320E
:1041EC002BB11B68984700B908BD0220FCE70220E0
:1041FC00FAE708B5D0F8B4325B689847002008BDE0
:10420C0038B5044600F52A75284600F035F9012327
:10421C00C4F89432B4F8AE32C4F8983294F8A812B8
:10422C0001F01F03012B08D0022B0BD07BB92946C0
:10423C00204600F0CFFA002038BD2946204600F079
:10424C00FDFAF8E72946204600F028FBF3E701F0D9
:10425C0080012046FDF7A3FBEDE738B504460D467B
:10426C0091BB1346D0F89422032A03D0052A24D0FC
:10427C00084633E0D0F86011D0F8642191420DD992
:10428C00891AC0F860118A4206D98AB219462046AA
:10429C0000F036FC284621E092B2F7E7D0F8B432B1
:1042AC001B691BB190F89C22032A04D0204600F015
:1042BC002FFC284612E09847F8E70021C0F894122A
:1042CC00FDF76DFB284609E0D0F8B4329B6933B199
:1042DC0090F89C22032A04D19847002038BD022074
:1042EC00FCE70220FAE738B504460D46002953D105
:1042FC001346D0F89422022A0CD0042A00D01AB902
:10430C0080212046FDF74BFB94F8A032012B3ED0C8
:10431C00284638BD026A416A8A421BD8C269B2FB80
:10432C00F1F301FB13232BB9914203D8D0F8983247
:10433C009A421CD3D4F8B432DB681BB194F89C229B
:10434C00032A21D080212046FDF729FB204600F0CE
:10435C00EAFBD9E7521A026292B2194600F0B9FB95
:10436C0000231A4619462046FDF74CFBCCE70022E9
:10437C00114600F0AEFB0021C4F898120B460A4619
:10438C002046FDF73FFBBFE720469847DAE70023BE
:10439C0084F8A0322846BCE7D0F8B4325B6933B15C
:1043AC0090F89C22032A04D198470020B1E7022000
:1043BC00AFE70220ADE770B504464023002211465A
:1043CC00FDF7DAFA0125C4F858514026C4F86461A7
:1043DC003346002280212046FDF7CEFAA5616662A5
:1043EC0084F89C520023C4F894326360C4F8A4325D
:1043FC00D4F8B8322BB1D4F8B4325B680021204623
:10440C009847002070BD01740020704790F89C32D2
:10441C0080F89D32042380F89C320020704790F87D
:10442C009C32042B01D00020704790F89D3280F80C
:10443C009C32F8E708B590F89C32032B01D0002091
:10444C0008BDD0F8B432DB69002BF8D09847F6E7FA
:10445C000346002002E00130C0B201331A78002A72
:10446C00F9D1704708B54B88012B00D008BDC0F8B6
:10447C00A43200F04DFBF9E70B7803704B784370D6
:10448C008B78CA7803EB022343800B794A7903EBD0
:10449C00022383808B79CA7903EB0223C380704794
:1044AC0010B504468021FDF77AFA00212046FDF76D
:1044BC0076FA10BD30B583B005460C460023ADF836
:1044CC0006304A88130A013B062B00F2A480DFE871
:1044DC0003F004182CA2A2869300D0F8B0321B680B
:1044EC000DF10601007C9847BDF806201AB1E3884F
:1044FC00002B40F09480E388002B00F09A8003B0EE
:10450C0030BD037C43B9D0F8B4329B6A0DF1060080
:10451C00984702234370E7E7D0F8B432DB6A0DF119
:10452C000600984702234370DEE7D2B2052A52D820
:10453C00DFE802F003101D2A3744D0F8B0325B6874
:10454C0023B10DF10601007C9847CDE72146FFF71A
:10455C00A7FFD4E7D0F8B0329B6823B10DF1060168
:10456C00007C9847C0E72146FFF79AFFC7E7D0F8D1
:10457C00B032DB6823B10DF10601007C9847B3E73C
:10458C002146FFF78DFFBAE7D0F8B0321B6923B193
:10459C000DF10601007C9847A6E72146FFF780FF46
:1045AC00ADE7D0F8B0325B6923B10DF10601007CA8
:1045BC00984799E72146FFF773FFA0E7D0F8B03290
:1045CC009B6923B10DF10601007C98478CE72146CD
:1045DC00FFF766FF93E72146FFF762FF8FE7037C47
:1045EC0033B9D0F8B4325B6B0DF1060098477BE71A
:1045FC002146FFF755FF82E7037C43B9D0F8B4326C
:10460C001B6B0DF106009847072343706CE721469E
:10461C00FFF746FF73E72146FFF742FF6FE79A4229
:10462C0028BF1A46ADF806200146284600F044FA89
:10463C0061E7284600F06CFA61E738B504468B88D0
:10464C00F3B9CB88E3B94B887F2B19D803F07F05DE
:10465C0090F89C32032B0CD080F89E522946FDF723
:10466C00C1F9204600F054FA35B1022384F89C328B
:10467C0009E0FFF715FF06E0012384F89C3202E005
:10468C002046FFF70DFF38BD38B504460D46897836
:10469C00284B197001290ED890F89C32022B0ED0A1
:1046AC00032B21D02946FFF7FBFE224B197820461D
:1046BC00FFF79FFD02E02946FFF7F2FE38BD81B1FE
:1046CC004160032380F89C32FFF787FD022803D05A
:1046DC00204600F01DFAF1E729462046FFF7E0FEE0
:1046EC00ECE700F015FAE9E789B1436899421DD06F
:1046FC00D9B2FFF77EFD0F4B197861602046FFF7AA
:10470C006CFD02280DD0204600F002FAD6E70223F9
:10471C0080F89C324160FFF76CFD204600F0F8F900
:10472C00CCE729462046FFF7BBFEC7E700F0F0F9BF
:10473C00C4E700BF7417002008B5CB88012B0AD141
:10474C0090F89C32022B09D9032B11D10122011DA7
:10475C0000F0B2F901E0FFF7A3FE08BD5BB23BB17C
:10476C000146002341F8083F012200F0A5F9F4E7C7
:10477C00FFF796FEF1E708B590F89C32013B022B4F
:10478C0012D8CB88022B0CD10123C360D0F8A432F1
:10479C000BB10323C360022200F10C0100F08CF971
:1047AC0008BDFFF77DFEFBE7FFF77AFEF8E708B5DB
:1047BC0090F89C32013B022B09D84B88012B00D07E
:1047CC0008BD0023C0F8A43200F0A2F9F8E7FFF707
:1047DC0067FEF5E708B50B7803F06003202B05D0D6
:1047EC00402B03D043B1FFF75BFE03E0D0F8B432AB
:1047FC009B689847002008BD4B78092B1BD8DFE835
:10480C0003F011171A141A08051A0E0BFFF752FEB3
:10481C00F0E7FFF712FFEDE7FFF736FFEAE7FFF7E8
:10482C008BFFE7E7FFF7A7FFE4E7FFF71BFEE1E7E6
:10483C00FFF7BDFFDEE7FFF733FEDBE738B50546D4
:10484C000C460B7803F06003202B06D0402B04D0D1
:10485C001BB1FFF725FE002038BD95F89C32013BBB
:10486C00022B16D82379012B0ED8D5F8B4329B68BD
:10487C00214628469847E388002BECD10028EAD142
:10488C00284600F045F9E6E721462846FFF708FEE2
:10489C00E1E721462846FFF703FEDCE770B5054645
:1048AC008B880C7804F06004202C07D0DAB2402CF2
:1048BC0004D05CB1FFF7F4FD002405E0D5F8B43268
:1048CC009B68284698470024204670BD202C09D0B0
:1048DC004E78012E33D0032E0AD0002E55D0FFF780
:1048EC00DFFDF1E7D0F8B4329B6898470446EBE75C
:1048FC0090F89C32022B04D0032B11D0FFF7D0FD83
:10490C00E2E70AB1802A03D12846FFF7C9FDDBE7AD
:10491C001146FDF744F880212846FDF740F8D3E70F
:10492C004B8823B91AB1802A01D0CB881BB12846F9
:10493C0000F0EEF8C8E71146FDF731F8F7E790F80C
:10494C009C32022B04D0032B11D0FFF7A9FDBBE73F
:10495C000AB1802A03D12846FFF7A2FDB4E711461D
:10496C00FDF71DF880212846FDF719F8ACE74B88B8
:10497C00002BA9D112F07F0F03D1284600F0C8F804
:10498C00A2E71146FDF713F8F7E790F89C0202280E
:10499C0006D0032829D02846FFF782FD344693E73A
:1049AC000AB1802A13D113F0800F15D102F07F02C7
:1049BC0002EB8202910001F5A87129440431002315
:1049CC000B600222284600F077F834467CE7284634
:1049DC00FFF766FD344677E702F07F0202EB8202B6
:1049EC009100103129440431E9E75BB2002B1FDB45
:1049FC0002F00F0000EB800005EB8000D0F85801AE
:104A0C0020B3002B27DB02F07F0303EB83039C0016
:104A1C0004F5A8742C4404340AB1802A24D1002350
:104A2C00236002222146284600F046F834464BE724
:104A3C0002F00F0000EB800005EB8000806900287D
:104A4C00DFD12846FFF72CFD34463DE72846FFF71B
:104A5C0027FD344638E702F07F0303EB83039C0009
:104A6C0010342C440434D7E711462846FCF7A7FF32
:104A7C0010B101232360D4E700232360D1E7D0B128
:104A8C0070B50D4616460446FFF7E2FC431C5B006E
:104A9C009BB233802B7003236B70022307E001342D
:104AAC005A1CD2B2E8540233DBB20021A95420784C
:104ABC000028F4D170BD704708B513460222C0F827
:104ACC009422C36103620A460021FCF793FF002085
:104ADC0008BD08B513460A460021FCF78BFF0020E1
:104AEC0008BD08B513460322C0F89422C0F85C3107
:104AFC00C0F860310A460021FCF784FF002008BD95
:104B0C0008B513460A460021FCF77CFF002008BDBF
:104B1C0008B50423C0F8943200231A461946FCF752
:104B2C0069FF002008BD08B50523C0F894320023A6
:104B3C001A461946FCF766FF002008BD10B5D0F8E0
:104B4C00B842D0F8BC325BB194F80002FF2807D011
:104B5C009B6894F8012221469847FF2384F8003281
:104B6C00002010BD432303800048704760010020E3
:104B7C004323038000487047A40100204323038093
:104B8C00004870471C0100200A230380004870472E
:104B9C002002002038B50446D0F8B852FCF73AFF92
:104BAC00C5F80C02D4F8B8324BB1D4F8BC32DB687F
:104BBC0005F50371D5F804029847002038BD022092
:104BCC00FCE710B5D0F8B822D0F8C042E2B101EB46
:104BDC00810300EB8303DB693BB104EB4114A46B51
:104BEC00B3FBF4FC04FB1C3323B10023C2F81432D6
:104BFC00002010BD01EB810300EB83030022DA617E
:104C0C001346FCF7F7FEF3E70220F2E7F0B583B0AA
:104C1C0006460C46D0F8B87200238DF80730ADF874
:104C2C0004300B7813F0600527D0202D53D1CA889F
:104C3C00DAB113F0800F0CD0D0F8BC329B68394637
:104C4C0060789847E28839463046FFF735FF0025F3
:104C5C0044E04B7887F800328B7987F80132CA88A8
:104C6C003946FFF73EFF002538E0D0F8BC329B6890
:104C7C00002248789847002530E04F780A2F10D052
:104C8C000B2F1CD01FBB90F89C32032B03D0FFF7CB
:104C9C0007FC022522E0022201A9FFF70DFF3D4689
:104CAC001CE090F89C32032B03D0FFF7F9FB022594
:104CBC0014E001220DF10701FFF7FEFE0EE090F863
:104CCC009C32032B0AD0FFF7EBFB022506E0FFF723
:104CDC00E7FB022502E0FFF7E3FB0225284603B0C1
:104CEC00F0BD38B504468121FCF751FE0025E56284
:104CFC0001212046FCF74BFEC4F86C518221204662
:104D0C00FCF745FE2564D4F8B8324BB1D4F8BC326C
:104D1C005B689847D4F8B802FCF786FEC4F8B85222
:104D2C00002038BD70B50446037CABBB4FF4007358
:104D3C0002228121FCF720FE0125E5624FF400736D
:104D4C00022229462046FCF717FEC4F86C510823B2
:104D5C00032282212046FCF70FFE012323644FF42B
:104D6C000770FCF75DFE0546C4F8B80268B3D4F8CA
:104D7C00BC321B6898470023C5F81432C5F81832AA
:104D8C00267CCEB94FF40073D5F8042201212046BD
:104D9C00FCF738FE304670BD402302228121FCF71F
:104DAC00EBFD0125E5624023022229462046FCF753
:104DBC00E3FDC4F86C51CAE74023D5F80422012165
:104DCC002046FCF71FFE0026E4E70126E2E719B1B6
:104DDC00C0F8BC120020704702207047D0F8B832DF
:104DEC00C3F80812C3F8102200207047D0F8B8326C
:104DFC00C3F8041200207047D0F8B8229AB108B555
:104E0C00D2F814320BB1012008BD0123C2F81432C0
:104E1C00D2F8103203639BB2D2F808228121FCF73E
:104E2C00E9FD0020F0E702207047D0F8B82292B1DB
:104E3C0008B5037C43B94FF40073D2F80422012166
:104E4C00FCF7E0FD002008BD4023D2F8042201212C
:104E5C00FCF7D8FDF6E702207047000010B50446B9
:104E6C000E4B1A784FF47A73B3FBF2F30C4A1068BA
:104E7C00B0FBF3F000F0A0F868B90F2C01D90120B9
:104E8C000AE0002221464FF0FF3000F077F8054B86
:104E9C001C60002000E0012010BD00BF2A02002091
:104EAC00300200202C02002008B5074A136843F09A
:104EBC0010031360032000F04FF80020FFF7CEFF23
:104ECC0001F020FF002008BD00200240034A1168B9
:104EDC00034B1B780B441360704700BF78170020FE
:104EEC002A020020014B1868704700BF7817002079
:104EFC00002808DB0901C9B200F1604000F56140EF
:104F0C0080F80013704700F00F000901C9B2014B83
:104F1C001954704714ED00E000B500F00700C0F123
:104F2C00070CBCF1040F28BF4FF0040C031D062B1B
:104F3C000FD9C31E4FF0FF3E0EFA0CF021EA000110
:104F4C0099400EFA03FE22EA0E0241EA02005DF8D5
:104F5C0004FB0023EEE70000074AD36823F4E06368
:104F6C001B041B0C000200F4E060034343F0BF631E
:104F7C0043F40033D360704700ED00E010B50446F5
:104F8C00054BD868C0F30220FFF7C6FF0146204648
:104F9C00FFF7AEFF10BD00BF00ED00E0002807DBFF
:104FAC0000F01F02400901239340024A42F82030CE
:104FBC00704700BF00E100E00138B0F1807F0BD2F8
:104FCC004FF0E0235861054AF02182F823100020AD
:104FDC00986107221A6170470120704700ED00E0CC
:104FEC0070B582B00024A446A1E07E4DAB4214D033
:104FFC000CD8A5F58015AB420FD005F57025AB424A
:10500C000BD0A5F58015AB4210D106E0764DAB4226
:10501C0003D005F58035AB4208D18B68002B50D0FE
:10502C00012B49D04261082400E0CC68BEF1FF0F8F
:10503C0049D806464FEA8C0233680F25954023EA7F
:10504C00050304FA02F2134333604B6813F0805FDC
:10505C006BD0664B9A6942F001029A619B6903F02E
:10506C0001030193019B4FEA9C02951C604B53F882
:10507C0025600CF00305AD000F23AB4026EA0306B8
:10508C005C4B984226D003F58063984200F08C80EC
:10509C0003F58063984200F0898003F580639842A1
:1050AC0016D0042317E0CC680434BFE7CC6808346E
:1050BC00BCE7CC680C34B9E702610824B6E70024DD
:1050CC00B4E70424B2E7061DACF108029200B3E782
:1050DC00032300E00023AB4033430232444D45F838
:1050EC0022304B6813F4803F62D0434A136843EA82
:1050FC000E0313604B6813F4003F5FD03E4A5368B5
:10510C0043EA0E0353604B6813F4801F5CD03A4A99
:10511C00936843EA0E0393604B6813F4001F59D055
:10512C00354AD36843EA0E03D3600CF1010C0B68CB
:10513C0033FA0CF254D0012202FA0CF203EA020EFA
:10514C0032EA0303F1D14B68122B3FF64EAF122B10
:10515C003FF66CAF01A555F823F000BF27500008AF
:10516C0037500008B9500008CB50000839500008DF
:10517C0039500008395000083950000839500008DF
:10518C0039500008395000083950000839500008CF
:10519C0039500008395000083950000839500008BF
:1051AC00B3500008BF500008012394E7022392E794
:1051BC00114A136823EA0E0313609BE70E4A5368E7
:1051CC0023EA0E0353609EE70B4A936823EA0E030F
:1051DC009360A1E7084AD36823EA0E03D360A4E7DF
:1051EC0002B070BD0000221000003110001002400F
:1051FC0000000140000801400004014070B586B079
:10520C00002877D0054690F82932EBB1032385F8B6
:10521C002932286800F0FCFF2C4654F8106BEC4641
:10522C000FCCACE80F002368CCF800302B1D0ECB54
:10523C00304600F0DDFF044658B1022385F82932D0
:10524C000124204606B070BD80F82832FCF7E0FA45
:10525C00DCE70021286800F0E5FF234611E005EBB0
:10526C004312012182F8291082F82830D3860021BC
:10527C0082F82B109163D1639A1C5201A95001330F
:10528C00DBB269688B42EAD312E005EB44120023CF
:10529C0082F8293182F8284182F82B31C2F8383152
:1052AC00C2F83C3104F10A025201AB500134E4B2B1
:1052BC00A142EAD82C4654F8106BEC460FCCACE863
:1052CC000F002368CCF800302B1D0ECB304600F0BD
:1052DC00ABFF044620B1022385F829320124B0E744
:1052EC00002385F82430012385F82932286801F041
:1052FC00F2FAA6E70124A4E790F82832012B10D08B
:10530C0010B50446012180F82812FCF78EFB2068AA
:10531C0001F0DFFA206800F072FF002084F8280208
:10532C0010BD0220704790F82832012B0DD010B51B
:10533C000446012380F8283280F82410006801F01C
:10534C00C2FA002084F8280210BD0220704710B564
:10535C0004468C4611F0800F24D101F00700400167
:10536C0000F59471214420444FF0000E80F829E19F
:10537C000CF0070C81F800C00A61CB704A780AB1B6
:10538C00A1F80EC0022B19D094F82832012B18D09A
:10539C00012384F82832206800F05CFF002084F898
:1053AC00280210BD01F00700400100F12801214442
:1053BC0020444FF0010E80F829E0D9E700230B714F
:1053CC00E2E70220EDE710B504460B4611F0800F22
:1053DC001AD101F00702520102F594710144024402
:1053EC00002082F8290103F007030B7094F828328F
:1053FC00012B14D0012384F82832206801F002F923
:10540C00002084F8280210BD01F00702520102F1BD
:10541C00280101440244012082F82900E3E702201C
:10542C00F1E710B501F007044FEA441C0CF5947138
:10543C0001448444CCF83C2104F10A024FEA421E98
:10544C0000EB421240F80E30002353608CF82931E7
:10545C008CF8284124B9006801F058FA002010BDDE
:10546C00006801F053FAF9E701F007010A3100EB8B
:10547C0041104068704710B501F007044FEA441C16
:10548C000CF1280101448444CCF83C20A21C4FEAC6
:10549C00421E00EB421240F80E30002353600123F1
:1054AC008CF829308CF8284024B9006801F02EFAC9
:1054BC00002010BD006801F029FAF9E7F8B505469F
:1054CC00AAE003889BB223F4E14323F070036FEA54
:1054DC0043436FEA53439BB203802A68B2F85030BF
:1054EC009BB295F8281003EBC103023302EB430285
:1054FC00B2F80034C3F309036B64EA6B1A44EA6331
:10550C0000212846FCF7B6F995F82430002B00F062
:10551C0083802B6C002B7FD195F824302A6843F0C4
:10552C008003A2F84C30002385F8243074E0B0F8E6
:10553C0050309BB295F8282103EBC203063300EBE5
:10554C004303B3F80034C3F30903C5F84431B5F889
:10555C002E2105F50C7101F082FB2A68138823F0CB
:10556C0070031B051B0D43F0800313802846FCF7CA
:10557C006FF951E03E2A09D8510812F0010F00D002
:10558C000131890289B2A3F80C14A6E0510912F07A
:10559C001F0F00D101396FEAC1626FEA524292B219
:1055AC00A3F80C2499E030F824309FB213F4004F88
:1055BC0040F0A28017F0800F2ED02A6832F82430E9
:1055CC009BB223F4E14323F070036FEA43436FEA89
:1055DC0053439BB222F824302A68B2F850309BB265
:1055EC0005EB441090F8281003EBC103023302EBD7
:1055FC004302B2F80034C3F309030234660105EB2D
:10560C0044146360C26B1A44C263AB59002B40F064
:10561C0010812846FCF72EF92868B0F8443013F4B2
:10562C00004F00F00A81B0F84440A3B214F00F040C
:10563C00B9D113F0100F3FF444AF03889AB213F4AE
:10564C00006F7FF474AF12F4004FE5D0038823F0A1
:10565C0070031B051B0D43F0800303802868B0F812
:10566C0050309BB295F8282103EBC203063300EBB4
:10567C004303B3F80034C3F30903C5F844318BB1C9
:10568C00D5F83C1171B1B5F82E2101F0E8FAD5F836
:10569C003C31D5F844211344C5F83C31002128464F
:1056AC00FCF7DEF82B68B3F8502092B21344D5F80F
:1056BC003821002A7FF45EAFB3F80C2492B222F4A6
:1056CC00F84292B2A3F80C24B3F80C246FEA4242CD
:1056DC006FEA524292B2A3F80C242A6813889BB248
:1056EC0023F4804323F0700383F4405343F40043CA
:1056FC0043F0800313808FE730F8243023F07003DD
:10570C001B051B0D43F0800320F8243005EB4413DC
:10571C0093F83431DBB92868B0F850309BB205EB04
:10572C00441292F8282103EBC203063300EB430327
:10573C00B3F80064C6F3090696B305EB441133467F
:10574C00B1F82E21D1F83C1101F089FA28E0286833
:10575C0005EB441393F8282130F8223013F4804FD2
:10576C0047D0B0F850309BB203EBC203023300EBCE
:10577C004303B3F80064C6F3090686BB2A6805EB3D
:10578C00441393F8281132F821309BB223F4E043F0
:10579C0023F0700343F4004343F0C00322F821309C
:1057AC0004F10A03590105EB43135A6832445A6059
:1057BC0005EB4413D3F83C213244C3F83C216B581D
:1057CC002BB105EB4411D1F838118E4229D205EBDF
:1057DC00441393F828112846FCF742F8EAE605EB47
:1057EC0044113346B1F83021D1F83C1101F037FAAD
:1057FC00C4E7B0F850309BB203EBC203063300EBA6
:10580C004303B3F80064C6F30906002EB6D005EBCB
:10581C0044113346B1F83221D1F83C1101F01FFA92
:10582C00ACE705EB441191F828112846FFF7F9FD78
:10583C00C0E62846FFF71FFEEEE60020F8BD10B5C7
:10584C000446006801F049F810F4004F45D1206877
:10585C0001F043F810F4806F43D1206801F03DF85B
:10586C0010F4804F08D02268B2F844309BB223F475
:10587C0080439BB2A2F84430206801F02EF810F45B
:10588C00005F08D02268B2F844309BB223F4005376
:10589C009BB2A2F84430206801F01FF810F4805F2E
:1058AC0030D1206801F019F810F4006F49D120684C
:1058BC0001F013F810F4007F6FD1206801F00DF89F
:1058CC0010F4807F08D02268B2F844309BB223F4E5
:1058DC0080739BB2A2F8443010BD2046FFF7EEFD5A
:1058EC00B5E72268B2F844309BB223F480639BB2D4
:1058FC00A2F844302046FBF7CCFF00212046FFF7EE
:10590C0012FDAAE72268B2F840309BB223F00403E0
:10591C009BB2A2F840302268B2F840309BB223F020
:10592C0008039BB2A2F840302046FBF7D5FF226853
:10593C00B2F844309BB223F480539BB2A2F84430AB
:10594C00AFE72268B2F840309BB243F00803A2F8EC
:10595C0040302268B2F844309BB223F400639BB20F
:10596C00A2F844302268B2F840309BB243F00403F2
:10597C00A2F84030206800F0B0FF10F4805F08D02F
:10598C002268B2F844309BB223F480539BB2A2F845
:10599C0044302046FBF790FF89E72268B2F8443088
:1059AC009BB223F400739BB2A2F844302046FBF761
:1059BC006AFF82E738B501F0070543689D422CD891
:1059CC00044611F0800F19D14B0103F59471014479
:1059DC000344002283F8292101238B700D7094F865
:1059EC002832012B1BD0012384F82832206800F0C8
:1059FC00F4FE65B1002084F8280238BD6B0103F178
:105A0C00280101440344012283F82920E4E704F52A
:105A1C000C71206800F065FFECE70120EDE7022037
:105A2C00EBE70B4601F00F01426891422CD810B500
:105A3C00044613F0800F1CD103F00702520102F54B
:105A4C00947101440244002082F8290100228A70DA
:105A5C0003F007030B7094F82832012B16D00123A6
:105A6C0084F82832206800F0DDFE002084F828023B
:105A7C0010BD03F00702520102F128010144024457
:105A8C00012082F82900E1E7012070470220EFE7AE
:105A9C0011F0800F09D001F00701490128310844A9
:105AAC0042B90273C38000207047490101F594711B
:105ABC000844F5E70122027303811B0C4381F2E7D2
:105ACC0082B0084B1B68084AA2FB03235B0A00FB4D
:105ADC0003F3019300BF019B5A1E0192002BF9D1D5
:105AEC0002B0704730020020D34D6210002800F045
